:02000000807B03
:02000300019D5D
:020013008079F2
:100030000E11111111110E040C040404041F0E11F1
:10004000020408101F0E11010201110E040C141EEF
:1000500004041F1F10100E01110E0204081E1111BE
:100060000E1F0204040404040E11110E11110E0ED1
:1000700011110F0204081F1F1F1F1F1F1F75A885C6
:1000800075B805D28AD28875812031F980FEC0E02A
:1000900011DD20B3050711F011DDD0E032C0E01111
:1000A000DD20B23609B90A0308802DB90C2A790877
:1000B000780C3123A80E314BA80F314BA810314BCF
:1000C000780A314B20B2ED11DD20B2E831F930B2BF
:1000D000FD11DD30B2F8800211DDD0E03253880F1F
:1000E000758901758ABF758C63438850308DFD22F8
:1000F000C0E0C002E7B90802800AB90902800BB962
:100100000A088000C454F0F68008540FFAE654F050
:100110004AF6B80D0590B000800390A000F0D00220
:10012000D0E022C0E0C000C001C00279027810E532
:100130000C850DF0A4250D75F00A84A6F018D9F7EA
:10014000F50ED002D001D000D0E022C0E0C001C046
:1001500002C003C004C005AC817E007B1053880F31
:10016000758911758A00758C004388508C81E875FB
:10017000F007A4C0E074BFC0E07907D0E09080022F
:10018000F003FA900030D0E0C0E093908000F0D00F
:10019000E005E0C0E0EAC0E07400F0D9DE0E31B660
:0D01A000308DC9DBB8D0E0D0E0D005D00430
:1001AD00D003D002D001D0E022C0E0C0017900EE32
:1001BD00B400027E01EB940B30D70DC2D7EB940641
:1001CD0020D70E7E01EE800AC2D78E0174FF998072
:1001DD0001EE53882F758911758BF6758DFF438848
:1001ED0050308FFDD5E0EBD001D0E0227E007F00B6
:1001FD00750800750900750A00750B00750C007502
:10020D000D00750E00750F007510007908780C74CF
:0A021D000090A000F090B000F02265
:00000001FF
