:1000000001820E11111111110E3F040C040404049D
:100010001F060E11020408101F5B0E1101020111D0
:100020000E4F040C141E04041F661F10100E011145
:100030000E6D0204081E11110E7D1F02040404043B
:1000400004070E11110E11110E7F0E11110F020473
:10005000086F0E11111F111111771E11111E1111B0
:100060001E7C0E11101010110E391E1111111111DC
:100070001E5E1F10101C10101F791F10101C101076
:10008000107174FF908000F07400908001F079107E
:100090007800119908D9FB80F5C0E0C001C002C00A
:1000A00003C004C005AC817B0F53880F75890175AF
:1000B0008A00758C004388508C81740090A006F0F3
:1000C000E8940830D711C2D7C001A900740123D920
:1000D000FD90A006F0D001E875F008A4C0E0240768
:1000E000FD74BFC0E07907D0E0908002F003FA9081
:1000F0000002D0E0C0E093908000F0D0E005E0C0C6
:10010000E0EAC0E07400F090800274FCF09000021D
:10011000ED93908001F07400F0D9CC308D9ADB899A
:10012000D0E0D0E0D005D004D003D002D001D0E0A0
:0101300022AC
:00000001FF
