:02000000803D41
:02000B0001F8FA
:10003000060503066607805B6D7F3F4F7D6F767513
:10004000A88275B802D288758120750800750900EC
:1000500011E8115680FCC0E0C001C00279037400B1
:10006000900030C0E093758390F582E0F811D5E000
:10007000B50006D0E0C0E01187D0E004D9E280DC12
:10008000D002D001D0E022C002C001C082C083AA49
:100090000053000FB80F0BA802D083D082D001D03C
:1000A0000222790475F004A4C0E0C000D0E0F8207A
:1000B000E01290800274FFF0D0E0C0E09000339333
:1000C000908001F0D0E004C0E0E803C0E0D9DDD0CA
:1000D000E0D0E080C253881F758901758B67758DEC
:1000E000C5438850308FFD2253881F758901758A5A
:1000F00000758C0043885022C0E00508E508B40F65
:10010000137508000509E509B43C0375090090B0B2
:0901100000E509F011E8D0E0322D
:00000001FF
