:100000008013060503066607805B6D7F3F4F7D6F9B
:010010007679
:10001300800D75A88475B804D28A75812080FEC0CE
:10002300E011C120B3160508E508B4020F750800F6
:1000330090800274FFF0908001F01142D0E032C052
:10004300E0C001C00279037400900002C0E0937520
:100053008390F582E0F811C1E0B50006D0E0C0E07E
:100063001173D0E004D9E280DCD002D001D0E022C9
:10007300C002C001C082C083AA0053000FB80F0B97
:10008300A802D083D082D001D00222790475F00473
:10009300A4C0E0C000D0E0F820E01290800274FF1A
:1000A300F0D0E0C0E090000593908001F0D0E00430
:1000B300C0E0E803C0E0D9DDD0E0D0E080C25388DF
:1000C3000F758901758A67758CC5438850308DFD1E
:0100D300220A
:00000001FF
